:020000040800F2
:10000000280400206501000855030008410300088A
:1000100051030008C9010008CD05000800000000D8
:10002000000000000000000000000000390400088B
:10003000CD01000800000000570300082905000852
:100040007B0100087B0100087B0100087B010008A0
:100050007B0100087B0100087B0100087B01000890
:100060007B0100087B0100087B0100087B01000880
:100070007B0100087B0100087B0100087B01000870
:100080007B0100087B0100087B0100087B01000860
:100090007B0100087B0100087B0100087B01000850
:1000A0007B0100087B0100087B0100087B01000840
:1000B0007B0100087B0100087B0100087B01000830
:1000C0007B0100087B0100087B0100087B01000820
:1000D0007B0100087B0100087B0100087B01000810
:1000E0007B0100087B0100087B0100080000000084
:1000F0000000000000000000000000000000000000
:1001000000000000000000007B0100087B010008E7
:100110007B0100087B0100087B0100087B010008CF
:100120007B0100087B0100087B0100087B010008BF
:100130007B0100087B0100087B0100087B010008AF
:100140007B0100087B0100087B0100087B0100089F
:10015000DFF80CD000F026F8004800473906000808
:100160002804002005480047FEE7FEE7FEE7FEE71B
:10017000FEE7FEE7FEE7FEE7FEE7FEE751010008C7
:10018000D2B201E000F8012B491EFBD270470022D9
:10019000F6E710B513460A4604461946FFF7F0FF86
:1001A000204610BD064C074D06E0E06840F0010314
:1001B00094E8070098471034AC42F6D3FFF7CCFF21
:1001C000B8080008D808000800BFFEE7704770B5FF
:1001D0000446002505E04FF47A7000F009FA681C27
:1001E000C5B2A542F7D370BD08B54FF48070ADF825
:1001F000000028208DF8030003208DF802006946D6
:10020000044800F009F8002000F0BEF8012000F0DA
:10021000DBF808BD001001402DE9F0410246002541
:100220000026002000230024002791F803C00CF0D2
:100230000F0591F803C00CF0100CBCF1000F03D0B7
:1002400091F802C04CEA050591F800C0BCF1000F1E
:1002500031D0146800202BE04FF0010C0CFA00F3B1
:10026000B1F800C00CEA03069E4220D183004FF093
:100270000F0C0CFA03F7BC4305FA03FC4CEA040428
:1002800091F803C0BCF1280F06D14FF0010C0CFA15
:1002900000FCC2F814C00AE091F803C0BCF1480F9A
:1002A00005D14FF0010C0CFA00FCC2F810C0401C44
:1002B0000828D1D31460B1F800C0BCF1FF0F34DDC1
:1002C000546800202EE000F1080C4FF0010808FAF5
:1002D0000CF3B1F800C00CEA03069E4221D1830062
:1002E0004FF00F0C0CFA03F7BC4305FA03FC4CEA81
:1002F000040491F803C0BCF1280F05D100F1080CEB
:1003000008FA0CF8C2F8148091F803C0BCF1480F49
:1003100007D100F1080C4FF0010808FA0CF8C2F8F8
:100320001080401C0828CED35460BDE8F0810246FE
:10033000002093680B400BB1012000E000207047C3
:1003400000BFFEE710B500F017F8FFF74DFF10BD36
:1003500000BFFEE77047704729B1064A9269024321
:10036000044B9A6104E0034A92698243014B9A610B
:10037000704700000010024010B500F0FDF80121A8
:100380001020FFF7E9FF10BD38B504460B4951F8BE
:1003900024000121FFF7E0FF094830F81400ADF810
:1003A000000010208DF8030003208DF8020005499D
:1003B00051F824006946FFF72FFF38BD6C0800088C
:1003C000680800080000002038B504460B4951F8C1
:1003D00024000121FFF7C0FF094830F81400ADF8F0
:1003E000000010208DF8030003208DF8020005495D
:1003F00051F824006946FFF70FFF38BD6C0800086C
:100400006808000800000020034931F81010034A72
:1004100052F8202011617047680800080000002091
:10042000034931F81010034A52F8202051617047F7
:100430006808000800000020704710B500F002F8BE
:1004400010BD00000CB500200190009034480068F9
:1004500040F480303249086000BF3148006800F441
:10046000003000900198401C0190009818B9019844
:10047000B0F5A06FF1D12A48006800F4003010B147
:100480000120009001E0002000900098012844D154
:100490002448006840F010002249086008460068BF
:1004A00020F0030008600846006840F00200086081
:1004B0001B4840681A49486008464068486008463A
:1004C000406840F4806048600846406820F47C1032
:1004D00048600846406840F4E810486008460068F4
:1004E00040F08070086000BF0D48006800F00070A8
:1004F0000028F9D00A48406820F003000849486005
:100500000846406840F00200486000BF0448406868
:1005100000F00C000828F9D101E000BFFEE70CBD97
:100520000010024000200240704700004FF0E02021
:10053000006920F002004FF0E02108610A480068DD
:100540000A49B0FBF1F0C0F3C7000949087008463A
:10055000007800EB4001C1EBC0104FF6FF7101EADB
:10056000C0000449088070475408000840420F004A
:10057000240000202600002010B51148006840F03B
:1005800001000F490860084640680E4908400C49C0
:100590004860084600680C49084009490860084658
:1005A000006820F4802008600846406820F4FE00BF
:1005B00048604FF41F008860FFF73FFF10BD000048
:1005C000001002400000FFF8FFFFF6FE00BFFEE74C
:1005D00002E008C8121F08C1002AFAD1704770470C
:1005E000002001E001C1121F002AFBD1704700006A
:1005F0000146104A12884A434FF0E0235A61002214
:100600009A6101221A6100BF4FF0E022106900F0E8
:1006100001021AB100F48032002AF5D04FF0E02236
:10062000126922F001024FF0E0231A6100229A6160
:100630007047000026000020FFF784FEFFF776FFDA
:100640000020FFF7EDFE0120FFF7DEFE23E04FF470
:1006500080711148FFF76BFEB8B900F01FF804462F
:10066000012C0EDC00240120FFF7DAFE4FF42F707E
:10067000FFF7BEFF0020FFF7C7FE0120FFF7C4FE13
:1006800006E00120FFF7C0FE02E00020FFF7C8FEF1
:100690003C20FFF79CFDDAE70010014000B587B071
:1006A000182101A8FFF773FD0F20FFF790FD4FF40D
:1006B00080716748FFF73BFE01900020FFF7B0FE16
:1006C0003C20FFF795FF0020FFF79EFE3C20FFF740
:1006D0008FFF0020FFF7A4FE3C20FFF789FF0020DA
:1006E000FFF792FE3C20FFF783FF0F20FFF76FFD1F
:1006F0004FF480715648FFF71AFE02900020FFF772
:100700008FFE3C20FFF774FF0020FFF77DFE3C20AA
:10071000FFF76EFF0020FFF783FE3C20FFF768FF26
:100720000020FFF771FE3C20FFF762FF0F20FFF76C
:100730004EFD4FF480714648FFF7F9FD039000200D
:10074000FFF76EFE3C20FFF753FF0020FFF75CFE33
:100750003C20FFF74DFF0020FFF762FE3C20FFF733
:1007600047FF0020FFF750FE3C20FFF741FF0F201E
:10077000FFF72DFD4FF480713548FFF7D8FD049049
:100780000020FFF74DFE3C20FFF732FF0020FFF76F
:100790003BFE3C20FFF72CFF0020FFF741FE3C20F2
:1007A000FFF726FF0020FFF72FFE3C20FFF720FF7A
:1007B0000F20FFF70CFD4FF480712548FFF7B7FDC0
:1007C00005900020FFF72CFE3C20FFF711FF0020D2
:1007D000FFF71AFE3C20FFF70BFF0020FFF720FE7B
:1007E0003C20FFF705FF0020FFF70EFE3C20FFF73F
:1007F000FFFE0F20FFF7EBFC4FF480711448FFF76A
:1008000096FD06900020FFF70BFE3C20FFF7F0FE60
:100810000020FFF7F9FD3C20FFF7EAFE0020FFF77C
:10082000FFFD3C20FFF7E4FE0020FFF7EDFD3C203C
:10083000FFF7DEFEDDE9010108440399084404994D
:1008400008440599084406990844C0B207B000BDA1
:100850000010014000A24A0400A24A0400A24A0477
:100860000051250200A24A04000104000400000017
:1008700020000000002000800100000004000000B3
:1008800004000000040000000020008001000000BF
:10089000000000000D000F000000280028000600E6
:1008A00000400000000002000400000004000000FE
:1008B0000002040000040800D8080008000000201E
:1008C00028000000D00500080009000828000020CA
:1008D00000040000E0050008000801400014014089
:1008E00000080140000801400008014000380140B4
:1008F00000440040000801400008014000000000E2
:04000005080001519D
:00000001FF
